:020000040800F2
:10000000180D0020A10100085F1300086912000804
:100010005D130008030300081D1500080000000020
:100020000000000000000000000000006313000852
:100030008D0300080000000061130008651300082C
:10004000BB010008BB010008BB010008BB010008A0
:10005000BB010008BB010008BB010008BB01000890
:10006000BB010008BB010008BB010008BB01000880
:1000700005030008BB010008BB010008BB01000824
:10008000BB010008BB010008BB010008BB01000860
:10009000BB010008BB010008BB010008BB01000850
:1000A000BB010008BB010008BB010008BB01000840
:1000B000BB010008BB010008BB010008BB01000830
:1000C000BB010008BB010008BB010008BB01000820
:1000D000BB010008BB010008BB010008BB01000810
:1000E000BB010008BB010008BB010008BB01000800
:1000F000BB010008BB010008BB010008BB010008F0
:10010000BB010008BB010008BB010008BB010008DF
:10011000BB010008BB010008BB010008BB010008CF
:10012000BB010008BB010008BB010008BB010008BF
:10013000BB010008BB010008BB010008BB010008AF
:10014000BB010008BB010008BB010008BB0100089F
:10015000BB010008BB010008BB010008BB0100088F
:10016000BB010008BB010008BB010008BB0100087F
:10017000BB010008BB010008BB0100080000000033
:10018000BB010008BB010008DFF810D000F07CF8CC
:10019000004800475D150008AFF30080180D0020EF
:1001A0000648804706480047FEE7FEE7FEE7FEE711
:1001B000FEE7FEE7FEE7FEE7FEE7FEE701140008C4
:1001C000890100082DE9F05F0546002092469B4614
:1001D00088460646814640241BE02846414647465D
:1001E000224600F041F853465A46C01A914110D3B6
:1001F00011461846224600F028F82D1A67EB010830
:100200004F4622460120002100F01FF817EB00099D
:100210004E41201EA4F10104DFDC484631462A4647
:100220004346BDE8F09FD2B201E000F8012B491E21
:10023000FBD270470022F6E710B513460A46044683
:100240001946FFF7F0FF204610BD202A04DB203AB4
:1002500000FA02F1002070479140C2F1200320FA19
:1002600003F3194390407047202A04DB203A21FA17
:1002700002F00021704721FA02F3D040C2F12002BF
:100280009140084319467047064C074D06E0E06868
:1002900040F0010394E8070098471034AC42F6D3CD
:1002A000FFF776FFAC160008CC16000870B58C1866
:1002B00010F8015B15F0070301D110F8013B2A117A
:1002C00006D110F8012B03E010F8016B01F8016B67
:1002D0005B1EF9D12B0705D40023521E0DD401F863
:1002E000013BFAE710F8013BCB1A921C03E013F82C
:1002F000015B01F8015B521EF9D5A142D8D3002061
:1003000070BDFEE7014800F013B900009808002016
:1003100001681823CAB2103AB2FBF3F2054B6FF32F
:100320000901032A9B5CC36500D9091D8165084644
:10033000704700004416000810B5014600208B6984
:100340008A6A4FF0C07453B1B3F5005F15D072B133
:10035000012A0CD0022A0AD0032A09D104E01AB1DA
:10036000012A06D0022A03D1C96AC90100D5012099
:1003700010BDC96AA142FAD010BD002AF7D0012AE7
:10038000F2D0022AF3D0032AF3D010BD704772B620
:10039000FEE70000002229B101291AD002291BD052
:1003A0004FF440720E490B6823F440730B600B68E6
:1003B00013430B600A6822F0F8020A600A680223FD
:1003C00003EBC00002430A60086840F48030086014
:1003D00070474FF48072E5E74FF40072E2E70000E7
:1003E000103C0240064A136823F4407313601368FC
:1003F0001360136843F0010313600170704700003D
:10040000103C0240094910B50C6824F440740C609B
:100410000C6844F440740C600C6844F001040C60F7
:100420000260BFF36F8F436010BD0000103C0240BC
:10043000074A136823F440731360136843F480730E
:100440001360136843F001031360018070470000DC
:10045000103C0240074A136823F44073136013688A
:1004600043F400731360136843F0010313600160E9
:1004700070470000103C024017490868C206174840
:1004800005D5C26942F01002C26110220A600A68F2
:10049000920605D5C26942F00802C26120220A60B4
:1004A0000A68520605D5C26942F00402C2614022C0
:1004B0000A600A68120605D5C26942F00202C261EA
:1004C00080220A600A68920705D5C26942F02002BC
:1004D000C2610220086070470C3C0240F80800200E
:1004E00070B5114904460020C86100F0C1FA064603
:1004F0000E4D09E0601C07D024B100F0B9FA801B52
:10050000A04201D9032070BD2868C003F2D4286836
:10051000C00701D001202860286810F0F200F2D056
:10052000FFF7AAFF012070BDF80800200C3C024034
:100530002DE9F84304464FF00009CDF800906348D8
:100540004FF41651A56D0068B0FBF1F72E6894F8D2
:100550005C10082000FA01F131420FD021680A68CE
:1005600052070BD50A6822F004020A6094F85C1066
:100570008840A860606D40F00100606594F85C10F0
:100580004FF0010808FA01F0304208D021684969AB
:10059000090604D5A860606D40F00200606594F81B
:1005A0005C1004208840304208D02168096889071F
:1005B00004D5A860606D40F00400606594F85C109C
:1005C00010208840304218D021680968090714D5E6
:1005D000A86020680168490304D50068000308D5B5
:1005E000A16C07E00168C90503D4016821F0080186
:1005F0000160216C09B12046884794F85C102020E6
:100600008840304231D021680968C9062DD5A860DC
:1006100094F8350005282068016806D0490347D5BD
:10062000006800031DD4616C1CE021F0160101601C
:100630002068416921F080014161206C08B9A06CFB
:1006400020B12068016821F00801016094F85C1075
:100650003F208840A86084F8349084F83580216D6C
:100660001FE0E16B09B120468847606D00282BD060
:10067000606DC00714D0052084F83500206801683B
:1006800021F0010101600098401C0090B84203D89D
:1006900020680068C007F6D184F8349084F835806B
:1006A000E16C002910D001B02046BDE8F0430847B6
:1006B0000168C905D5D4016821F01001016084F8F2
:1006C000349084F83580CCE7BDE8F883100400202E
:1006D0002DE9F041044600F0CBF906465CB1002557
:1006E00084F83450022084F835002068016821F035
:1006F000010101600DE00120BDE8F08100F0B8F9D2
:10070000801B052805D920206065032084F835006A
:10071000F2E720680068C007F0D12268116820481D
:100720000140D4E901031843D4E9033633431843A5
:1007300063691843A3691843E3691843236A18439C
:100740000843616A042903D1D4E90B131943084310
:10075000106020684069666A20F0070130460E4349
:10076000012704280CD1A06A0643E06A40B1204664
:10077000FFF7E2FD20B14020606584F83570BAE7EC
:10078000206846612046FFF7C3FD94F85C203F21B6
:1007900091408160656584F835700020ACE7000009
:1007A0003F8010F070B5044600F062F90546601C09
:1007B00002D004480078044400F05AF9401BA042DB
:1007C000FAD370BD040400200348016841F00041E1
:1007D0000160002070470000103C02402DE9F04706
:1007E0001B4E05461446307E1F468946012808D018
:1007F000012030764CF250384046FFF771FE18B1B8
:1008000014E00220BDE8F0879DB1012D16D0022D25
:1008100019D022463B464846FFF7F4FD4046FFF715
:100820005FFE0C490A6822F001020A60002131765D
:10083000E8E7E1B24846FFF7D5FDEFE7A1B2484649
:10084000FFF7F6FDEAE721464846FFF703FEE5E736
:10085000F8080020103C0240074900200A68002ADE
:1008600009DA054A054B0C3A1360054B1360096819
:10087000002900DA01207047103C0240230167453F
:10088000AB89EFCD2DE9F84FDFF8B8A100220125A3
:100890000AF1040B03264FF00F090BF1040E00BF01
:1008A0000B6805FA02F42340A3426FD10F7907F0D9
:1008B0000307012F01D0022F16D187684FEA4208A3
:1008C00006FA08FC27EA0C07D1F80CC00CFA08FC61
:1008D0004CEA070CC0F808C04768A7430C79C4F37A
:1008E000001494403C4344600C79E443A4070AD0CC
:1008F000C4684FEA420C06FA0CF7BC438F6807FA4B
:100900000CF72743C7600C7904F00304022C12D1C2
:10091000D40800EB840CDCF820405707FF0E09FADE
:1009200007F824EA0804D1F8108008FA07F848EA22
:100930000408CCF8208004684FEA420C06FA0CF751
:10094000BC430F7907F0030707FA0CF7274307604A
:100950004C68E40070D53C4C276847F4804727601A
:10096000246822F0030704F480440094374C07EB1A
:10097000040CDCF8084897074FEA177809FA08F7DB
:10098000BC43334FB84202D1002724E054E0314F3A
:10099000B84201D101271EE02F4FB84201D10227F2
:1009A00019E02E4FB84201D1032714E02C4FB84272
:1009B00001D104270FE02B4FB84201D105270AE0EF
:1009C000294FB84201D1062705E0284FB84201D18E
:1009D000072700E0082707FA08F72743CCF808782C
:1009E000DAF800405746D1F804C09C435FEACC3C9B
:1009F00000D51C433C60DBF800405F46D1F804C0E2
:100A00009C435FEA8C3C00D51C433C60DEF8004010
:100A10007746D1F804C09C435FEACC2C00D51C4338
:100A20003C60084F0C373C68D1F804C09C435FEA37
:100A30008C2C00D51C433C60521C102AFFF430AFB4
:100A4000BDE8F88F003C01404438024000300140CE
:100A5000000002400004024000080240000C024076
:100A6000001002400014024000180240001C024026
:100A70000148806870470000040400200248816833
:100A80000278114481607047040400200B4810B5BF
:100A9000016841F400710160016841F48061016006
:100AA000016841F480710160032000F071F80020BA
:100AB00000F006F800F024F8002010BD003C0240D1
:100AC00070B50D4D04464FF47A712878B1FBF0F003
:100AD0000A490968B1FBF0F000F00CFB48B9102C92
:100AE00007D200222146501E00F032F800206C6030
:100AF00070BD012070BD000004040020100400201F
:100B00000B4882B0016841F480410160006800F444
:100B1000804000900648001F016841F0805101604C
:100B2000006800F080500090072002B000F030B85C
:100B300044380240002809DB00F01F0201219140E7
:100B40004009800000F1E020C0F80011704700006B
:100B5000F0B40E4B1B680C46C3F30223C3F1070528
:100B6000042D00D90425191D072901D2002300E016
:100B7000DB1E012606FA05F1491E214099409E40E0
:100B8000761E16403143F0BC00F0C9BC0CED00E00D
:100B9000064900F0070208684FF6FF03184040EAD4
:100BA0000220034A10430860704700000CED00E08B
:100BB0000000FA052DE9F0470E46050065D0DFF884
:100BC0001481D8F80000F7B200F00700B04207D255
:100BD00088F80070D8F8000000F00700B04254D147
:100BE00028683D4C810712D5400703D5206840F4A2
:100BF000E05020602878000703D5206840F460406A
:100C000020602068A96820F0F00008432060287860
:100C1000C0072DD0304968680839012812D0022851
:100C200013D0032811D00968890700292DDA21681B
:100C300021F0030101432160FFF71AFF814641F2D1
:100C4000883A0EE009688903EFE709688901ECE753
:100C5000FFF70EFFA0EB0901514502D90320BDE8C3
:100C6000F0872068696800F00C00B0EB810FEFD1CD
:100C7000D8F80010404601F00701B14207D90770CB
:100C8000006800F00700B04201D00120E7E72878B3
:100C9000400705D52068E96820F4E050084320604B
:100CA0002878000706D52068296920F4604040EACA
:100CB000C100206000F038F82168084AC1F3031130
:100CC000515CC8400649086006480068FFF7F8FE16
:100CD0000020C4E7003C0240083802404C160008DF
:100CE0001004002008040020044805490068096831
:100CF000044AC1F38221515CC840704710040020AF
:100D0000083802405C160008044805490068096874
:100D1000044AC1F34231515CC840704710040020BE
:100D2000083802405C160008154810B5006810F03D
:100D30000C02144813D04110042A0FD0082A0ED1F7
:100D40000F4C241F2268236802F03F025B0207D584
:100D50002068C0F38810A0FB010106E0084610BD22
:100D60002168C1F38811A1FB00010023FFF72AFAD3
:100D70002168C1F30141491C4900B0FBF1F010BDED
:100D8000083802400024F4002DE9F84F04006ED02A
:100D90002078DFF84C93C007A9F104054AD009F187
:100DA00004000168C1F38101012908D00068C0F383
:100DB000810002280AD1D9F80000400206D528682F
:100DC000800337D560680028E1D033E06068B0F573
:100DD000803F10D0B0F5A02F286810D020F48030CC
:100DE0002860286820F4802028606068A8B1FFF798
:100DF0003FFE06460DE0286840F48030F4E740F4FA
:100E000080202860F7E700BFFFF732FE801B6428D0
:100E100073D828688003F7D50CE0FFF729FE064653
:100E200005E000BFFFF724FE801B6428F0D8286887
:100E30008003F7D42078DFF8AC8280074FF0000AF7
:100E40003ED5A748001D016811F00C0F08D00068BE
:100E5000C0F3810002280BD1D9F80000400207D46A
:100E60002868800716D5E068012800D112E033E138
:100E7000E068B8B10120C8F80000FFF7F9FD0646A8
:100E800005E000BFFFF7F4FD801B0228C0D82868EA
:100E90008007F7D52868216920F0F80040EAC100F2
:100EA00028600DE0C8F800A0FFF7E2FD064604E068
:100EB000FFF7DEFD801B02281FD828688007F7D4C3
:100EC0002078000722D5864F87486169703771B155
:100ED00001210160FFF7CCFD064604E0FFF7C8FDE5
:100EE000801B022809D838688007F7D50EE0C0F8C3
:100EF00000A0FFF7BDFD064605E082E0FFF7B8FD64
:100F0000801B02287DD838688007F7D420784007F6
:100F100068D5DFF8CCB100270BF13C0BDBF8000003
:100F2000C0000BD4DBF8001041F08051CBF800106A
:100F3000DBF80000012700F0805000906B4E306815
:100F4000C00510D4306840F480703060FFF790FD29
:100F5000009005E0FFF78CFD0099401A022850D858
:100F60003068C005F6D55E4EA0686C3601280FD0FB
:100F70000528306810D020F001003060306820F083
:100F800004003060A068B8B1FFF772FD00900FE078
:100F9000306840F00100F4E740F004003060F7E70B
:100FA000FFF766FD0099411A41F28830814266D808
:100FB00030688007F4D50EE0FFF75AFD009007E097
:100FC000FFF756FD0099411A41F28830814256D808
:100FD00030688007F4D42FB1DBF8001021F0805185
:100FE000CBF80010A069C8B33D49091D0968C1F3D9
:100FF000810102294AD00228504607D0C8F8600073
:1010000000E03CE0FFF734FD04463BE04746C8F80B
:101010006000FFF72DFD064605E000BFFFF728FD45
:10102000801B02282BD828688001F7D4D4E9070157
:101030000843A16A2E4A490802EB0141626A41EA6B
:101040008211084394F82C1040EA0161C9F800109D
:1010500001203866FFF70CFD044606E03EE000BFC5
:10106000FFF706FD001B022809D828688001F7D584
:1010700034E000BFFFF7FCFC001B022802D903206C
:10108000BDE8F88F28688001F4D427E00128F7D064
:10109000D9F80000E26900F4800191421CD1226A73
:1010A00000F03F01914217D147F6C071626A0140DA
:1010B000B1EB821F10D1A26A4FF0FF3300F4403130
:1010C00003EB5202B1EB024F06D194F82C1000F062
:1010D0007060B0EB016F01D00120D1E70020CFE7B5
:1010E0000438024000004742800E47420070004032
:1010F0000000FFFF10B5401EB0F1807F01D301203A
:1011000010BD4FF0E02460610F21601700F007FA76
:101110000020A06107202061002010BD70B50400F0
:1011200004D094F83D00002510B106E0012070BD08
:1011300084F83C50204600F023F8242084F83D0039
:101140002068C16821F40051C160204600F060F9B8
:101150002068016921F4904101612068416921F012
:101160002A0141612068C16841F40051C1602564D1
:10117000202084F83D0084F83E00002070BD00006F
:10118000F0B587B0064614216846FFF753F830499A
:10119000DFF8B8C0376800252D4810390222032334
:1011A000072467451AD1066846F4003606600068D1
:1011B00000F400300590086840F0010008600868FD
:1011C000694600F0010005900C208DE82500CDE96E
:1011D00003342048FFF756FB07B0F0BDDFF878C0B6
:1011E0006745F9D1076847F480270760006800F475
:1011F00080200590086840F0020008600868694691
:1012000000F0020005904FF440608DE82500CDE924
:1012100003341248FFF736FB124C114820604FF0A0
:101220000060C4E901054014C4E903508010656101
:10123000C4E90650256220466562FFF749FA08B105
:10124000FFF7A5F8B463A663C6E7000000440040BA
:1012500040380240000002400048004000040240C4
:101260002860024098080020FEE7000010B5124CEC
:101270006468204453B1012B0BD0022B08D100230A
:1012800016E000BF10F8014BCC545B1C9342F9D31D
:1012900010BD002305E000BF30F8024B21F81340D9
:1012A0005B1C9342F8D310BD10C841F823405B1C6F
:1012B0009342F9D310BD0000FC030020014A1070D6
:1012C00051607047FC0300202DE9F041224D0F468C
:1012D0009846696816460C18FFF7BEFA022128786E
:1012E000FFF758F8FFF770FAFFF7B6FA5FEA080061
:1012F00005D0012810D0B8F1020F28D11AE000253E
:1013000007E000237A5D21461846FFF767FA641C60
:101310006D1CB542F5D31AE0002508E037F815201A
:10132000002321460120FFF759FAA41C6D1CB54289
:10133000F4D30CE0002508E057F8252000232146CF
:101340000220FFF74BFA241D6D1CB542F4D3BDE813
:10135000F041FFF739BA0000FC030020FEE7FEE78A
:1013600070477047FFF78ABB30B593B030216846AD
:10137000FEF760FF14210CA8FEF75CFF1E48002555
:10138000016841F080510160006800F080501190C8
:101390001A48016841F4804101600068022400F4A9
:1013A0008040119001200090000401908001CDE95F
:1013B0000640082008904FF4A870CDE909040720E2
:1013C0000B906846FFF7E0FC08B172B6FEE70CA987
:1013D0000F2081E831004FF4A0500F904FF480505F
:1013E000109005210CA8FFF7E5FB002801D072B68C
:1013F000FEE713B030BD00004038024000700040EE
:101400000248016841F470010160704788ED00E016
:1014100070B5044600680169E26821F44051114347
:1014200001612169A068E2690843616911430843C9
:101430002168CA6849F20C639A430243CA60206873
:101440004169A26921F44071114341613149206829
:10145000884202D03049884202D1FFF755FC01E0B2
:10146000FFF742FCE2690023192164253226B2F518
:10147000004F626828D0A0FB0101930F9200FEF795
:10148000A1FE0146B0FBF5F06FF01802504301EBEE
:10149000800006EB0010B0FBF5F000F0F002B1FBAD
:1014A000F5F002EB0012B1FBF5F06FF018035843B2
:1014B00001EB800006EB0010B0FBF5F000F00F0030
:1014C00021681044886070BDA0FB010192185B4147
:1014D000FEF778FE0146B0FBF5F00201B1FBF5F036
:1014E0006FF01803584301EB800006EBC000B0FB1F
:1014F000F5F000F0F80002EB4002B1FBF5F05843C4
:1015000001EB800006EBC000B0FBF5F000F0070037
:10151000D6E700000010014000140140FEE7090773
:10152000090E002804DB00F1E02080F80014704769
:1015300000F00F0000F1E02080F8141D704702E079
:1015400008C8121F08C1002AFAD17047704700204E
:1015500001E001C1121F002AFBD1704708B5FFF757
:1015600095FAFFF701FF31480024016841F080013E
:101570000160016801F080010091016841F0010102
:101580000160016801F001010091016841F0020170
:101590000160016801F002010091016841F400114D
:1015A00001600068002200F40010009011460C2039
:1015B000FFF7CEFA0C20FFF7BDFA1E481C494FF486
:1015C00016550160C0E901540C26C460C0E9044608
:1015D0008461C461FFF7A2FD08B172B6FEE7154849
:1015E000154944300160C0E90154C460C0E90446B3
:1015F0008461C461FFF792FD08B172B6FEE70F493E
:101600000B20FFF75BFE0023FF220D491846FFF772
:101610005BFE4FF47A7407490023FF228831184695
:10162000FFF724FE2046FFF7BDF8F4E7303802400C
:1016300000440040140400200048004000000E0850
:101640000000002000061016000610160000000022
:101650000000000001020304060708090000000062
:1016600001020304244750474C4C2C333735312EAC
:1016700036352C532C31343530372E33362C452A21
:1016800037370000244750474C4C2C343931362E24
:1016900034352C4E2C31323331312E31322C572C03
:1016A0003232353434342C4100000000CC160008AE
:1016B0000000002014040000AC020008E816000836
:1016C00014040020040900004E1500081364169B42
:1016D0000884042910690401FF01FF01FF01EB32B6
:0816E0000182101324F4000044
:040000050800018965
:00000001FF
